{
  "_format": "hh-sol-artifact-1",
  "contractName": "WavePortal",
  "sourceName": "contracts/WavePortal.sol",
  "abi": [
    {
      "inputs": [],
      "stateMutability": "nonpayable",
      "type": "constructor"
    },
    {
      "inputs": [],
      "name": "getListOfWavers",
      "outputs": [],
      "stateMutability": "view",
      "type": "function"
    },
    {
      "inputs": [],
      "name": "getTotalWaves",
      "outputs": [
        {
          "internalType": "uint256",
          "name": "",
          "type": "uint256"
        }
      ],
      "stateMutability": "view",
      "type": "function"
    },
    {
      "inputs": [],
      "name": "wave",
      "outputs": [],
      "stateMutability": "nonpayable",
      "type": "function"
    }
  ],
  "bytecode": "0x608060405234801561001057600080fd5b5061003c6040518060600160405280602581526020016109d26025913961004160201b6102941760201c565b6101c4565b6100dd816040516024016100559190610142565b6040516020818303038152906040527f41304fac000000000000000000000000000000000000000000000000000000007bffffffffffffffffffffffffffffffffffffffffffffffffffffffff19166020820180517bffffffffffffffffffffffffffffffffffffffffffffffffffffffff83818316178352505050506100e060201b60201c565b50565b60008151905060006a636f6e736f6c652e6c6f679050602083016000808483855afa5050505050565b600061011482610164565b61011e818561016f565b935061012e818560208601610180565b610137816101b3565b840191505092915050565b6000602082019050818103600083015261015c8184610109565b905092915050565b600081519050919050565b600082825260208201905092915050565b60005b8381101561019e578082015181840152602081019050610183565b838111156101ad576000848401525b50505050565b6000601f19601f8301169050919050565b6107ff806101d36000396000f3fe608060405234801561001057600080fd5b50600436106100415760003560e01c80636fe15b44146100465780637e95e1a2146100505780639a2cdc081461005a575b600080fd5b61004e610078565b005b610058610135565b005b610062610249565b60405161006f9190610644565b60405180910390f35b600160008082825461008a919061067b565b925050819055506001339080600181540180825580915050600190039060005260206000200160009091909190916101000a81548173ffffffffffffffffffffffffffffffffffffffff021916908373ffffffffffffffffffffffffffffffffffffffff1602179055506101336040518060400160405280600e81526020017f25732068617320776173766564210000000000000000000000000000000000008152503361032d565b565b6101736040518060400160405280601c81526020017f5468697320697320746865206c697374206f66207761766572733a0a00000000815250610294565b60005b600180549050811015610246576102336040518060400160405280600781526020017f25642e2025730a000000000000000000000000000000000000000000000000008152506001836101c9919061067b565b60018481548110610203577f4e487b7100000000000000000000000000000000000000000000000000000000600052603260045260246000fd5b9060005260206000200160009054906101000a900473ffffffffffffffffffffffffffffffffffffffff166103c9565b808061023e90610740565b915050610176565b50565b600061028c6040518060400160405280601781526020017f5765206861766520256420746f74616c20776176657321000000000000000000815250600054610468565b600054905090565b61032a816040516024016102a89190610584565b6040516020818303038152906040527f41304fac000000000000000000000000000000000000000000000000000000007bffffffffffffffffffffffffffffffffffffffffffffffffffffffff19166020820180517bffffffffffffffffffffffffffffffffffffffffffffffffffffffff8381831617835250505050610504565b50565b6103c582826040516024016103439291906105a6565b6040516020818303038152906040527f319af333000000000000000000000000000000000000000000000000000000007bffffffffffffffffffffffffffffffffffffffffffffffffffffffff19166020820180517bffffffffffffffffffffffffffffffffffffffffffffffffffffffff8381831617835250505050610504565b5050565b6104638383836040516024016103e193929190610606565b6040516020818303038152906040527fe3849f79000000000000000000000000000000000000000000000000000000007bffffffffffffffffffffffffffffffffffffffffffffffffffffffff19166020820180517bffffffffffffffffffffffffffffffffffffffffffffffffffffffff8381831617835250505050610504565b505050565b610500828260405160240161047e9291906105d6565b6040516020818303038152906040527f9710a9d0000000000000000000000000000000000000000000000000000000007bffffffffffffffffffffffffffffffffffffffffffffffffffffffff19166020820180517bffffffffffffffffffffffffffffffffffffffffffffffffffffffff8381831617835250505050610504565b5050565b60008151905060006a636f6e736f6c652e6c6f679050602083016000808483855afa5050505050565b610536816106d1565b82525050565b60006105478261065f565b610551818561066a565b935061056181856020860161070d565b61056a816107b8565b840191505092915050565b61057e81610703565b82525050565b6000602082019050818103600083015261059e818461053c565b905092915050565b600060408201905081810360008301526105c0818561053c565b90506105cf602083018461052d565b9392505050565b600060408201905081810360008301526105f0818561053c565b90506105ff6020830184610575565b9392505050565b60006060820190508181036000830152610620818661053c565b905061062f6020830185610575565b61063c604083018461052d565b949350505050565b60006020820190506106596000830184610575565b92915050565b600081519050919050565b600082825260208201905092915050565b600061068682610703565b915061069183610703565b9250827fffffffffffffffffffffffffffffffffffffffffffffffffffffffffffffffff038211156106c6576106c5610789565b5b828201905092915050565b60006106dc826106e3565b9050919050565b600073ffffffffffffffffffffffffffffffffffffffff82169050919050565b6000819050919050565b60005b8381101561072b578082015181840152602081019050610710565b8381111561073a576000848401525b50505050565b600061074b82610703565b91507fffffffffffffffffffffffffffffffffffffffffffffffffffffffffffffffff82141561077e5761077d610789565b5b600182019050919050565b7f4e487b7100000000000000000000000000000000000000000000000000000000600052601160045260246000fd5b6000601f19601f830116905091905056fea2646970667358221220c13893569fff323a8c9ed629160e216cc8d6a5d221f43691567c6a808ecb3dea64736f6c63430008040033596f20796f2c204920616d206120636f6e747261637420616e64204920616d20736d617274",
  "linkReferences": {},
  "deployedLinkReferences": {}
}